{
  "contractName": "MultiPostVoting",
  "abi": [
    {
      "constant": true,
      "inputs": [
        {
          "name": "",
          "type": "uint256"
        }
      ],
      "name": "posts",
      "outputs": [
        {
          "name": "name",
          "type": "string"
        }
      ],
      "payable": false,
      "stateMutability": "view",
      "type": "function"
    },
    {
      "constant": true,
      "inputs": [],
      "name": "votingStart",
      "outputs": [
        {
          "name": "",
          "type": "uint256"
        }
      ],
      "payable": false,
      "stateMutability": "view",
      "type": "function"
    },
    {
      "constant": true,
      "inputs": [
        {
          "name": "",
          "type": "uint256"
        }
      ],
      "name": "candidates",
      "outputs": [
        {
          "name": "name",
          "type": "string"
        },
        {
          "name": "voteCount",
          "type": "uint256"
        }
      ],
      "payable": false,
      "stateMutability": "view",
      "type": "function"
    },
    {
      "constant": true,
      "inputs": [],
      "name": "votingEnd",
      "outputs": [
        {
          "name": "",
          "type": "uint256"
        }
      ],
      "payable": false,
      "stateMutability": "view",
      "type": "function"
    },
    {
      "constant": true,
      "inputs": [],
      "name": "owner",
      "outputs": [
        {
          "name": "",
          "type": "address"
        }
      ],
      "payable": false,
      "stateMutability": "view",
      "type": "function"
    },
    {
      "constant": true,
      "inputs": [
        {
          "name": "",
          "type": "address"
        }
      ],
      "name": "voters",
      "outputs": [
        {
          "name": "",
          "type": "bool"
        }
      ],
      "payable": false,
      "stateMutability": "view",
      "type": "function"
    },
    {
      "inputs": [],
      "payable": false,
      "stateMutability": "nonpayable",
      "type": "constructor"
    },
    {
      "anonymous": false,
      "inputs": [
        {
          "indexed": true,
          "name": "voter",
          "type": "address"
        }
      ],
      "name": "AlreadyVoted",
      "type": "event"
    },
    {
      "anonymous": false,
      "inputs": [
        {
          "indexed": true,
          "name": "candidateIndex",
          "type": "uint256"
        },
        {
          "indexed": false,
          "name": "name",
          "type": "string"
        }
      ],
      "name": "CandidateAdded",
      "type": "event"
    },
    {
      "anonymous": false,
      "inputs": [
        {
          "indexed": true,
          "name": "electionId",
          "type": "uint256"
        },
        {
          "indexed": false,
          "name": "postNames",
          "type": "string[]"
        }
      ],
      "name": "ElectionCreated",
      "type": "event"
    },
    {
      "anonymous": false,
      "inputs": [
        {
          "indexed": true,
          "name": "voter",
          "type": "address"
        },
        {
          "indexed": true,
          "name": "postIndex",
          "type": "uint256"
        },
        {
          "indexed": true,
          "name": "candidateIndex",
          "type": "uint256"
        }
      ],
      "name": "VoteCast",
      "type": "event"
    },
    {
      "constant": false,
      "inputs": [
        {
          "name": "_postNames",
          "type": "string[]"
        },
        {
          "name": "_candidateNames",
          "type": "string[][]"
        },
        {
          "name": "_durationInMinutes",
          "type": "uint256"
        }
      ],
      "name": "createElection",
      "outputs": [],
      "payable": false,
      "stateMutability": "nonpayable",
      "type": "function"
    },
    {
      "constant": false,
      "inputs": [
        {
          "name": "_postIndex",
          "type": "uint256"
        },
        {
          "name": "_name",
          "type": "string"
        }
      ],
      "name": "addCandidate",
      "outputs": [],
      "payable": false,
      "stateMutability": "nonpayable",
      "type": "function"
    },
    {
      "constant": false,
      "inputs": [
        {
          "name": "_postIndex",
          "type": "uint256"
        },
        {
          "name": "_candidateIndex",
          "type": "uint256"
        }
      ],
      "name": "vote",
      "outputs": [],
      "payable": false,
      "stateMutability": "nonpayable",
      "type": "function"
    },
    {
      "constant": false,
      "inputs": [
        {
          "name": "_postName",
          "type": "string"
        },
        {
          "name": "_candidateNames",
          "type": "string[]"
        }
      ],
      "name": "addPostWithCandidates",
      "outputs": [],
      "payable": false,
      "stateMutability": "nonpayable",
      "type": "function"
    },
    {
      "constant": true,
      "inputs": [
        {
          "name": "_postIndex",
          "type": "uint256"
        }
      ],
      "name": "getVoteCount",
      "outputs": [
        {
          "name": "",
          "type": "uint256[]"
        }
      ],
      "payable": false,
      "stateMutability": "view",
      "type": "function"
    }
  ],
  "bytecode": "0x608060405234801561001057600080fd5b5033600260006101000a81548173ffffffffffffffffffffffffffffffffffffffff021916908373ffffffffffffffffffffffffffffffffffffffff160217905550611d34806100616000396000f3fe6080604052600436106100a9576000357c0100000000000000000000000000000000000000000000000000000000900480630b1e7f83146100ae578063101158af146100eb5780631750a3d0146101165780631a9f459c1461013f5780633477ee2e1461016857806385a38635146101a65780638da5cb5b146101d1578063958266c6146101fc578063a3ec138d14610225578063b2c2f2e814610262578063b384abef1461029f575b600080fd5b3480156100ba57600080fd5b506100d560048036036100d091908101906114ef565b6102c8565b6040516100e29190611977565b60405180910390f35b3480156100f757600080fd5b5061010061038d565b60405161010d9190611acb565b60405180910390f35b34801561012257600080fd5b5061013d60048036036101389190810190611518565b610393565b005b34801561014b57600080fd5b5061016660048036036101619190810190611404565b61056c565b005b34801561017457600080fd5b5061018f600480360361018a91908101906114ef565b6108ba565b60405161019d9291906119bb565b60405180910390f35b3480156101b257600080fd5b506101bb610985565b6040516101c89190611acb565b60405180910390f35b3480156101dd57600080fd5b506101e661098b565b6040516101f391906118fd565b60405180910390f35b34801561020857600080fd5b50610223600480360361021e9190810190611483565b6109b1565b005b34801561023157600080fd5b5061024c600480360361024791908101906113db565b610c5a565b604051610259919061195c565b60405180910390f35b34801561026e57600080fd5b50610289600480360361028491908101906114ef565b610c7a565b604051610296919061193a565b60405180910390f35b3480156102ab57600080fd5b506102c660048036036102c1919081019061156c565b610ddd565b005b6000818154811015156102d757fe5b9060005260206000209060020201600091509050806000018054600181600116156101000203166002900480601f0160208091040260200160405190810160405280929190818152602001828054600181600116156101000203166002900480156103835780601f1061035857610100808354040283529160200191610383565b820191906000526020600020905b81548152906001019060200180831161036657829003601f168201915b5050505050905081565b60045481565b600260009054906101000a900473ffffffffffffffffffffffffffffffffffffffff1673ffffffffffffffffffffffffffffffffffffffff163373ffffffffffffffffffffffffffffffffffffffff16141515610425576040517f08c379a000000000000000000000000000000000000000000000000000000000815260040161041c90611a6b565b60405180910390fd5b6000805490508210151561046e576040517f08c379a000000000000000000000000000000000000000000000000000000000815260040161046590611a0b565b60405180910390fd5b600060018054905090506001604080519081016040528084815260200160008152509080600181540180825580915050906001820390600052602060002090600202016000909192909190915060008201518160000190805190602001906104d79291906110b3565b50602082015181600101555050506000838154811015156104f457fe5b9060005260206000209060020201600101819080600181540180825580915050906001820390600052602060002001600090919290919091505550807fe83b2a43e7e82d975c8a0a6d2f045153c869e111136a34d1889ab7b598e396a38360405161055f9190611999565b60405180910390a2505050565b600260009054906101000a900473ffffffffffffffffffffffffffffffffffffffff1673ffffffffffffffffffffffffffffffffffffffff163373ffffffffffffffffffffffffffffffffffffffff161415156105fe576040517f08c379a00000000000000000000000000000000000000000000000000000000081526004016105f590611a6b565b60405180910390fd5b81518351141515610644576040517f08c379a000000000000000000000000000000000000000000000000000000000815260040161063b90611a4b565b60405180910390fd5b60008090505b8351811015610861576060838281518110151561066357fe5b906020019060200201519050606081516040519080825280602002602001820160405280156106a15781602001602082028038833980820191505090505b50905060008090505b82518110156107bb57600060018054905090506001604080519081016040528086858151811015156106d857fe5b90602001906020020151815260200160008152509080600181540180825580915050906001820390600052602060002090600202016000909192909190915060008201518160000190805190602001906107339291906110b3565b506020820151816001015550505080838381518110151561075057fe5b9060200190602002018181525050807fe83b2a43e7e82d975c8a0a6d2f045153c869e111136a34d1889ab7b598e396a3858481518110151561078e57fe5b906020019060200201516040516107a59190611977565b60405180910390a25080806001019150506106aa565b506000604080519081016040528088868151811015156107d757fe5b906020019060200201518152602001838152509080600181540180825580915050906001820390600052602060002090600202016000909192909190915060008201518160000190805190602001906108319291906110b3565b50602082015181600101908051906020019061084e929190611133565b505050505050808060010191505061064a565b5042600481905550603c810242016005819055506001600080549050037faec60fc706a74b36a5137e72c833e5dcc05007d2faa46b594fda137ec41baac3846040516108ad9190611918565b60405180910390a2505050565b6001818154811015156108c957fe5b9060005260206000209060020201600091509050806000018054600181600116156101000203166002900480601f0160208091040260200160405190810160405280929190818152602001828054600181600116156101000203166002900480156109755780601f1061094a57610100808354040283529160200191610975565b820191906000526020600020905b81548152906001019060200180831161095857829003601f168201915b5050505050908060010154905082565b60055481565b600260009054906101000a900473ffffffffffffffffffffffffffffffffffffffff1681565b600260009054906101000a900473ffffffffffffffffffffffffffffffffffffffff1673ffffffffffffffffffffffffffffffffffffffff163373ffffffffffffffffffffffffffffffffffffffff16141515610a43576040517f08c379a0000000000000000000000000000000000000000000000000000000008152600401610a3a90611a6b565b60405180910390fd5b60008151111515610a89576040517f08c379a0000000000000000000000000000000000000000000000000000000008152600401610a8090611a8b565b60405180910390fd5b60608151604051908082528060200260200182016040528015610abb5781602001602082028038833980820191505090505b50905060008090505b8251811015610bd55760006001805490509050600160408051908101604052808685815181101515610af257fe5b9060200190602002015181526020016000815250908060018154018082558091505090600182039060005260206000209060020201600090919290919091506000820151816000019080519060200190610b4d9291906110b3565b5060208201518160010155505050808383815181101515610b6a57fe5b9060200190602002018181525050807fe83b2a43e7e82d975c8a0a6d2f045153c869e111136a34d1889ab7b598e396a38584815181101515610ba857fe5b90602001906020020151604051610bbf9190611977565b60405180910390a2508080600101915050610ac4565b506000604080519081016040528085815260200183815250908060018154018082558091505090600182039060005260206000209060020201600090919290919091506000820151816000019080519060200190610c349291906110b3565b506020820151816001019080519060200190610c51929190611133565b50505050505050565b60036020528060005260406000206000915054906101000a900460ff1681565b606060008054905082101515610cc5576040517f08c379a0000000000000000000000000000000000000000000000000000000008152600401610cbc90611a0b565b60405180910390fd5b6060600083815481101515610cd657fe5b906000526020600020906002020160010180549050604051908082528060200260200182016040528015610d195781602001602082028038833980820191505090505b50905060008090505b600084815481101515610d3157fe5b906000526020600020906002020160010180549050811015610dd35760008085815481101515610d5d57fe5b906000526020600020906002020160010182815481101515610d7b57fe5b90600052602060002001549050600181815481101515610d9757fe5b9060005260206000209060020201600101548383815181101515610db757fe5b9060200190602002018181525050508080600101915050610d22565b5080915050919050565b600360003373ffffffffffffffffffffffffffffffffffffffff1673ffffffffffffffffffffffffffffffffffffffff16815260200190815260200160002060009054906101000a900460ff16151515610e6c576040517f08c379a0000000000000000000000000000000000000000000000000000000008152600401610e63906119eb565b60405180910390fd5b60008054905082101515610eb5576040517f08c379a0000000000000000000000000000000000000000000000000000000008152600401610eac90611a0b565b60405180910390fd5b600082815481101515610ec457fe5b90600052602060002090600202016001018054905081101515610f1c576040517f08c379a0000000000000000000000000000000000000000000000000000000008152600401610f1390611a2b565b60405180910390fd5b6005544211151515610f63576040517f08c379a0000000000000000000000000000000000000000000000000000000008152600401610f5a90611aab565b60405180910390fd5b60008083815481101515610f7357fe5b906000526020600020906002020160010182815481101515610f9157fe5b90600052602060002001549050600181815481101515610fad57fe5b9060005260206000209060020201600101600081548092919060010191905055506001600360003373ffffffffffffffffffffffffffffffffffffffff1673ffffffffffffffffffffffffffffffffffffffff16815260200190815260200160002060006101000a81548160ff0219169083151502179055503373ffffffffffffffffffffffffffffffffffffffff167fd449d674cb213019103ed0874ef5d2bc3d31fe332f9d7d55f87ff967a029c0c360405160405180910390a280833373ffffffffffffffffffffffffffffffffffffffff167fb4cfecf70861b7b150d8337780d34fb4cbc2114b5fb1fe51a5c5fca1849f727460405160405180910390a4505050565b828054600181600116156101000203166002900490600052602060002090601f016020900481019282601f106110f457805160ff1916838001178555611122565b82800160010185558215611122579182015b82811115611121578251825591602001919060010190611106565b5b50905061112f9190611180565b5090565b82805482825590600052602060002090810192821561116f579160200282015b8281111561116e578251825591602001919060010190611153565b5b50905061117c9190611180565b5090565b6111a291905b8082111561119e576000816000905550600101611186565b5090565b90565b60006111b18235611c8b565b905092915050565b600082601f83011215156111cc57600080fd5b81356111df6111da82611b13565b611ae6565b9150818183526020840193506020810190508360005b83811015611225578135860161120b888261122f565b8452602084019350602083019250506001810190506111f5565b5050505092915050565b600082601f830112151561124257600080fd5b813561125561125082611b3b565b611ae6565b9150818183526020840193506020810190508360005b8381101561129b5781358601611281888261131b565b84526020840193506020830192505060018101905061126b565b5050505092915050565b600082601f83011215156112b857600080fd5b81356112cb6112c682611b63565b611ae6565b9150818183526020840193506020810190508360005b8381101561131157813586016112f7888261131b565b8452602084019350602083019250506001810190506112e1565b5050505092915050565b600082601f830112151561132e57600080fd5b813561134161133c82611b8b565b611ae6565b9150808252602083016020830185838301111561135d57600080fd5b611368838284611ca7565b50505092915050565b600082601f830112151561138457600080fd5b813561139761139282611bb7565b611ae6565b915080825260208301602083018583830111156113b357600080fd5b6113be838284611ca7565b50505092915050565b60006113d38235611c9d565b905092915050565b6000602082840312156113ed57600080fd5b60006113fb848285016111a5565b91505092915050565b60008060006060848603121561141957600080fd5b600084013567ffffffffffffffff81111561143357600080fd5b61143f868287016112a5565b935050602084013567ffffffffffffffff81111561145c57600080fd5b611468868287016111b9565b9250506040611479868287016113c7565b9150509250925092565b6000806040838503121561149657600080fd5b600083013567ffffffffffffffff8111156114b057600080fd5b6114bc85828601611371565b925050602083013567ffffffffffffffff8111156114d957600080fd5b6114e5858286016112a5565b9150509250929050565b60006020828403121561150157600080fd5b600061150f848285016113c7565b91505092915050565b6000806040838503121561152b57600080fd5b6000611539858286016113c7565b925050602083013567ffffffffffffffff81111561155657600080fd5b61156285828601611371565b9150509250929050565b6000806040838503121561157f57600080fd5b600061158d858286016113c7565b925050602061159e858286016113c7565b9150509250929050565b6115b181611c43565b82525050565b60006115c282611bfd565b808452602084019350836020820285016115db85611be3565b60005b848110156116145783830388526115f68383516116c5565b925061160182611c29565b91506020880197506001810190506115de565b508196508694505050505092915050565b600061163082611c08565b80845260208401935061164283611bf0565b60005b82811015611674576116588683516118ee565b61166182611c36565b9150602086019550600181019050611645565b50849250505092915050565b61168981611c55565b82525050565b600061169a82611c1e565b8084526116ae816020860160208601611cb6565b6116b781611ce9565b602085010191505092915050565b60006116d082611c13565b8084526116e4816020860160208601611cb6565b6116ed81611ce9565b602085010191505092915050565b6000601782527f596f75206861766520616c726561647920766f7465642e0000000000000000006020830152604082019050919050565b6000601282527f496e76616c696420706f737420696e64657800000000000000000000000000006020830152604082019050919050565b6000601882527f496e76616c69642063616e64696461746520696e6465782e00000000000000006020830152604082019050919050565b6000603882527f496e76616c696420696e7075743a20506f737420616e642063616e646964617460208301527f65206e616d6573206c656e67746873206d69736d6174636800000000000000006040830152606082019050919050565b6000602682527f4f6e6c7920746865206f776e65722063616e20706572666f726d20746869732060208301527f616374696f6e00000000000000000000000000000000000000000000000000006040830152606082019050919050565b6000602782527f4174206c65617374206f6e652063616e646964617465206d757374206265207060208301527f726f7669646564000000000000000000000000000000000000000000000000006040830152606082019050919050565b6000601082527f566f74696e672068617320656e646564000000000000000000000000000000006020830152604082019050919050565b6118f781611c81565b82525050565b600060208201905061191260008301846115a8565b92915050565b6000602082019050818103600083015261193281846115b7565b905092915050565b600060208201905081810360008301526119548184611625565b905092915050565b60006020820190506119716000830184611680565b92915050565b6000602082019050818103600083015261199181846116c5565b905092915050565b600060208201905081810360008301526119b3818461168f565b905092915050565b600060408201905081810360008301526119d581856116c5565b90506119e460208301846118ee565b9392505050565b60006020820190508181036000830152611a04816116fb565b9050919050565b60006020820190508181036000830152611a2481611732565b9050919050565b60006020820190508181036000830152611a4481611769565b9050919050565b60006020820190508181036000830152611a64816117a0565b9050919050565b60006020820190508181036000830152611a84816117fd565b9050919050565b60006020820190508181036000830152611aa48161185a565b9050919050565b60006020820190508181036000830152611ac4816118b7565b9050919050565b6000602082019050611ae060008301846118ee565b92915050565b6000604051905081810181811067ffffffffffffffff82111715611b0957600080fd5b8060405250919050565b600067ffffffffffffffff821115611b2a57600080fd5b602082029050602081019050919050565b600067ffffffffffffffff821115611b5257600080fd5b602082029050602081019050919050565b600067ffffffffffffffff821115611b7a57600080fd5b602082029050602081019050919050565b600067ffffffffffffffff821115611ba257600080fd5b601f19601f8301169050602081019050919050565b600067ffffffffffffffff821115611bce57600080fd5b601f19601f8301169050602081019050919050565b6000602082019050919050565b6000602082019050919050565b600081519050919050565b600081519050919050565b600081519050919050565b600081519050919050565b6000602082019050919050565b6000602082019050919050565b6000611c4e82611c61565b9050919050565b60008115159050919050565b600073ffffffffffffffffffffffffffffffffffffffff82169050919050565b6000819050919050565b6000611c9682611c61565b9050919050565b6000819050919050565b82818337600083830152505050565b60005b83811015611cd4578082015181840152602081019050611cb9565b83811115611ce3576000848401525b50505050565b6000601f19601f830116905091905056fea265627a7a723058203a272ae5a494ca661a96fce81c3054cea55a5d51aea03878181a9f4979a5881a6c6578706572696d656e74616cf50037",
  "source": "// SPDX-License-Identifier: MIT\r\npragma experimental ABIEncoderV2;\r\npragma solidity >=0.4.22 <0.9.0;\r\n\r\ncontract MultiPostVoting {\r\n  struct Candidate {\r\n    string name;\r\n    uint256 voteCount;\r\n  }\r\n\r\n  struct Post {\r\n    string name;\r\n    uint256[] candidateIndexes;\r\n  }\r\n\r\n  Post[] public posts;\r\n  Candidate[] public candidates;\r\n  address public owner;\r\n  mapping(address => bool) public voters;\r\n\r\n  uint256 public votingStart;\r\n  uint256 public votingEnd;\r\n\r\n  event AlreadyVoted(address indexed voter);\r\n  event CandidateAdded(uint256 indexed candidateIndex, string name);\r\n  event ElectionCreated(uint256 indexed electionId, string[] postNames);\r\n  event VoteCast(address indexed voter, uint256 indexed postIndex, uint256 indexed candidateIndex);\r\n\r\n  constructor() public  {\r\n    owner = msg.sender;\r\n  }\r\n\r\n  modifier onlyOwner() {\r\n    require(msg.sender == owner, \"Only the owner can perform this action\");\r\n    _;\r\n  }\r\n\r\n  function createElection(string[] memory _postNames, string[][] memory _candidateNames, uint256 _durationInMinutes) public onlyOwner {\r\n    require(_postNames.length == _candidateNames.length, \"Invalid input: Post and candidate names lengths mismatch\");\r\n\r\n    for (uint256 i = 0; i < _postNames.length; i++) {\r\n      string[] memory postCandidates = _candidateNames[i];\r\n      uint256[] memory candidateIndexes = new uint256[](postCandidates.length);\r\n\r\n      for (uint256 j = 0; j < postCandidates.length; j++) {\r\n        uint256 candidateIndex = candidates.length;\r\n        candidates.push(Candidate({\r\n          name: postCandidates[j],\r\n          voteCount: 0\r\n        }));\r\n        candidateIndexes[j] = candidateIndex;\r\n\r\n        emit CandidateAdded(candidateIndex, postCandidates[j]);\r\n      }\r\n\r\n      posts.push(Post({\r\n        name: _postNames[i],\r\n        candidateIndexes: candidateIndexes\r\n      }));\r\n    }\r\n\r\n    votingStart = block.timestamp;\r\n    votingEnd = block.timestamp + (_durationInMinutes * 1 minutes);\r\n\r\n    emit ElectionCreated(posts.length - 1, _postNames);\r\n  }\r\n\r\n  function addCandidate(uint256 _postIndex, string memory _name) public onlyOwner {\r\n    require(_postIndex < posts.length, \"Invalid post index\");\r\n\r\n    uint256 candidateIndex = candidates.length;\r\n    candidates.push(Candidate({\r\n      name: _name,\r\n      voteCount: 0\r\n    }));\r\n\r\n    posts[_postIndex].candidateIndexes.push(candidateIndex);\r\n\r\n    emit CandidateAdded(candidateIndex, _name);\r\n  }\r\n\r\n  function vote(uint256 _postIndex, uint256 _candidateIndex) public {\r\n    require(!voters[msg.sender], \"You have already voted.\");\r\n    require(_postIndex < posts.length, \"Invalid post index\");\r\n    require(_candidateIndex < posts[_postIndex].candidateIndexes.length, \"Invalid candidate index.\");\r\n    require(block.timestamp <= votingEnd, \"Voting has ended\");\r\n\r\n    uint256 candidateIndex = posts[_postIndex].candidateIndexes[_candidateIndex];\r\n    candidates[candidateIndex].voteCount++;\r\n    voters[msg.sender] = true;\r\n\r\n    emit AlreadyVoted(msg.sender);\r\n    emit VoteCast(msg.sender, _postIndex, candidateIndex);\r\n  }\r\n\r\n  function addPostWithCandidates(string memory _postName, string[] memory _candidateNames) public onlyOwner {\r\n    require(_candidateNames.length > 0, \"At least one candidate must be provided\");\r\n\r\n    uint256[] memory candidateIndexes = new uint256[](_candidateNames.length);\r\n\r\n    for (uint256 i = 0; i < _candidateNames.length; i++) {\r\n      uint256 candidateIndex = candidates.length;\r\n      candidates.push(Candidate({\r\n        name: _candidateNames[i],\r\n        voteCount: 0\r\n      }));\r\n      candidateIndexes[i] = candidateIndex;\r\n\r\n      emit CandidateAdded(candidateIndex, _candidateNames[i]);\r\n    }\r\n\r\n    posts.push(Post({\r\n      name: _postName,\r\n      candidateIndexes: candidateIndexes\r\n    }));\r\n  }\r\n\r\n  function getVoteCount(uint256 _postIndex) public view returns (uint256[] memory) {\r\n    require(_postIndex < posts.length, \"Invalid post index\");\r\n\r\n    uint256[] memory votes = new uint256[](posts[_postIndex].candidateIndexes.length);\r\n\r\n    for (uint256 i = 0; i < posts[_postIndex].candidateIndexes.length; i++) {\r\n        uint256 candidateIndex = posts[_postIndex].candidateIndexes[i];\r\n        votes[i] = candidates[candidateIndex].voteCount;\r\n    }\r\n\r\n    return votes;\r\n  }\r\n\r\n}",
  "sourcePath": "D:\\De-vote1\\Mainproject\\contracts\\MultiPostVoting.sol",
  "compiler": {
    "name": "solc",
    "version": "0.5.1+commit.c8a2cb62.Emscripten.clang"
  },
  "schemaVersion": "3.4.16",
  "updatedAt": "2024-04-07T11:14:51.244Z",
  "networkType": "ethereum",
  "devdoc": {
    "methods": {}
  },
  "userdoc": {
    "methods": {}
  }
}