{
  "contractName": "MultiPostVoting",
  "abi": [
    {
      "constant": true,
      "inputs": [
        {
          "name": "",
          "type": "uint256"
        }
      ],
      "name": "posts",
      "outputs": [
        {
          "name": "name",
          "type": "string"
        }
      ],
      "payable": false,
      "stateMutability": "view",
      "type": "function"
    },
    {
      "constant": true,
      "inputs": [],
      "name": "votingStart",
      "outputs": [
        {
          "name": "",
          "type": "uint256"
        }
      ],
      "payable": false,
      "stateMutability": "view",
      "type": "function"
    },
    {
      "constant": true,
      "inputs": [
        {
          "name": "",
          "type": "uint256"
        }
      ],
      "name": "candidates",
      "outputs": [
        {
          "name": "name",
          "type": "string"
        },
        {
          "name": "voteCount",
          "type": "uint256"
        }
      ],
      "payable": false,
      "stateMutability": "view",
      "type": "function"
    },
    {
      "constant": true,
      "inputs": [],
      "name": "votingEnd",
      "outputs": [
        {
          "name": "",
          "type": "uint256"
        }
      ],
      "payable": false,
      "stateMutability": "view",
      "type": "function"
    },
    {
      "constant": true,
      "inputs": [],
      "name": "owner",
      "outputs": [
        {
          "name": "",
          "type": "address"
        }
      ],
      "payable": false,
      "stateMutability": "view",
      "type": "function"
    },
    {
      "constant": true,
      "inputs": [
        {
          "name": "",
          "type": "address"
        },
        {
          "name": "",
          "type": "uint256"
        }
      ],
      "name": "votersByPost",
      "outputs": [
        {
          "name": "",
          "type": "bool"
        }
      ],
      "payable": false,
      "stateMutability": "view",
      "type": "function"
    },
    {
      "inputs": [],
      "payable": false,
      "stateMutability": "nonpayable",
      "type": "constructor"
    },
    {
      "anonymous": false,
      "inputs": [
        {
          "indexed": true,
          "name": "voter",
          "type": "address"
        },
        {
          "indexed": true,
          "name": "postIndex",
          "type": "uint256"
        }
      ],
      "name": "AlreadyVoted",
      "type": "event"
    },
    {
      "anonymous": false,
      "inputs": [
        {
          "indexed": true,
          "name": "candidateIndex",
          "type": "uint256"
        },
        {
          "indexed": false,
          "name": "name",
          "type": "string"
        }
      ],
      "name": "CandidateAdded",
      "type": "event"
    },
    {
      "anonymous": false,
      "inputs": [
        {
          "indexed": true,
          "name": "electionId",
          "type": "uint256"
        },
        {
          "indexed": false,
          "name": "postNames",
          "type": "string[]"
        }
      ],
      "name": "ElectionCreated",
      "type": "event"
    },
    {
      "anonymous": false,
      "inputs": [
        {
          "indexed": true,
          "name": "voter",
          "type": "address"
        },
        {
          "indexed": true,
          "name": "postIndex",
          "type": "uint256"
        },
        {
          "indexed": true,
          "name": "candidateIndex",
          "type": "uint256"
        }
      ],
      "name": "VoteCast",
      "type": "event"
    },
    {
      "constant": false,
      "inputs": [
        {
          "name": "_postNames",
          "type": "string[]"
        },
        {
          "name": "_candidateNames",
          "type": "string[][]"
        },
        {
          "name": "_durationInMinutes",
          "type": "uint256"
        }
      ],
      "name": "createElection",
      "outputs": [],
      "payable": false,
      "stateMutability": "nonpayable",
      "type": "function"
    },
    {
      "constant": false,
      "inputs": [
        {
          "name": "_postIndex",
          "type": "uint256"
        },
        {
          "name": "_name",
          "type": "string"
        }
      ],
      "name": "addCandidate",
      "outputs": [],
      "payable": false,
      "stateMutability": "nonpayable",
      "type": "function"
    },
    {
      "constant": false,
      "inputs": [
        {
          "name": "_postIndex",
          "type": "uint256"
        },
        {
          "name": "_candidateIndex",
          "type": "uint256"
        }
      ],
      "name": "vote",
      "outputs": [],
      "payable": false,
      "stateMutability": "nonpayable",
      "type": "function"
    },
    {
      "constant": false,
      "inputs": [
        {
          "name": "_postName",
          "type": "string"
        },
        {
          "name": "_candidateNames",
          "type": "string[]"
        }
      ],
      "name": "addPostWithCandidates",
      "outputs": [],
      "payable": false,
      "stateMutability": "nonpayable",
      "type": "function"
    },
    {
      "constant": true,
      "inputs": [
        {
          "name": "_postIndex",
          "type": "uint256"
        }
      ],
      "name": "getVoteCount",
      "outputs": [
        {
          "name": "",
          "type": "uint256[]"
        }
      ],
      "payable": false,
      "stateMutability": "view",
      "type": "function"
    },
    {
      "constant": false,
      "inputs": [],
      "name": "deleteAllPostsAndCandidates",
      "outputs": [],
      "payable": false,
      "stateMutability": "nonpayable",
      "type": "function"
    }
  ],
  "bytecode": "0x608060405234801561001057600080fd5b5033600260006101000a81548173ffffffffffffffffffffffffffffffffffffffff021916908373ffffffffffffffffffffffffffffffffffffffff160217905550612089806100616000396000f3fe6080604052600436106100b4576000357c0100000000000000000000000000000000000000000000000000000000900480630b1e7f83146100b9578063101158af146100f65780631750a3d0146101215780631a9f459c1461014a5780633477ee2e1461017357806385a38635146101b15780638da5cb5b146101dc578063939e131314610207578063958266c61461021e578063b2c2f2e814610247578063b384abef14610284578063c48d283d146102ad575b600080fd5b3480156100c557600080fd5b506100e060048036036100db919081019061181e565b6102ea565b6040516100ed9190611ccc565b60405180910390f35b34801561010257600080fd5b5061010b6103af565b6040516101189190611e20565b60405180910390f35b34801561012d57600080fd5b5061014860048036036101439190810190611847565b6103b5565b005b34801561015657600080fd5b50610171600480360361016c9190810190611733565b61058e565b005b34801561017f57600080fd5b5061019a6004803603610195919081019061181e565b6108dc565b6040516101a8929190611d10565b60405180910390f35b3480156101bd57600080fd5b506101c66109a7565b6040516101d39190611e20565b60405180910390f35b3480156101e857600080fd5b506101f16109ad565b6040516101fe9190611c52565b60405180910390f35b34801561021357600080fd5b5061021c6109d3565b005b34801561022a57600080fd5b50610245600480360361024091908101906117b2565b610c76565b005b34801561025357600080fd5b5061026e6004803603610269919081019061181e565b610f1f565b60405161027b9190611c8f565b60405180910390f35b34801561029057600080fd5b506102ab60048036036102a6919081019061189b565b611082565b005b3480156102b957600080fd5b506102d460048036036102cf91908101906116f7565b611337565b6040516102e19190611cb1565b60405180910390f35b6000818154811015156102f957fe5b9060005260206000209060020201600091509050806000018054600181600116156101000203166002900480601f0160208091040260200160405190810160405280929190818152602001828054600181600116156101000203166002900480156103a55780601f1061037a576101008083540402835291602001916103a5565b820191906000526020600020905b81548152906001019060200180831161038857829003601f168201915b5050505050905081565b60045481565b600260009054906101000a900473ffffffffffffffffffffffffffffffffffffffff1673ffffffffffffffffffffffffffffffffffffffff163373ffffffffffffffffffffffffffffffffffffffff16141515610447576040517f08c379a000000000000000000000000000000000000000000000000000000000815260040161043e90611da0565b60405180910390fd5b60008054905082101515610490576040517f08c379a000000000000000000000000000000000000000000000000000000000815260040161048790611d40565b60405180910390fd5b600060018054905090506001604080519081016040528084815260200160008152509080600181540180825580915050906001820390600052602060002090600202016000909192909190915060008201518160000190805190602001906104f9929190611366565b506020820151816001015550505060008381548110151561051657fe5b9060005260206000209060020201600101819080600181540180825580915050906001820390600052602060002001600090919290919091505550807fe83b2a43e7e82d975c8a0a6d2f045153c869e111136a34d1889ab7b598e396a3836040516105819190611cee565b60405180910390a2505050565b600260009054906101000a900473ffffffffffffffffffffffffffffffffffffffff1673ffffffffffffffffffffffffffffffffffffffff163373ffffffffffffffffffffffffffffffffffffffff16141515610620576040517f08c379a000000000000000000000000000000000000000000000000000000000815260040161061790611da0565b60405180910390fd5b81518351141515610666576040517f08c379a000000000000000000000000000000000000000000000000000000000815260040161065d90611d80565b60405180910390fd5b60008090505b8351811015610883576060838281518110151561068557fe5b906020019060200201519050606081516040519080825280602002602001820160405280156106c35781602001602082028038833980820191505090505b50905060008090505b82518110156107dd57600060018054905090506001604080519081016040528086858151811015156106fa57fe5b9060200190602002015181526020016000815250908060018154018082558091505090600182039060005260206000209060020201600090919290919091506000820151816000019080519060200190610755929190611366565b506020820151816001015550505080838381518110151561077257fe5b9060200190602002018181525050807fe83b2a43e7e82d975c8a0a6d2f045153c869e111136a34d1889ab7b598e396a385848151811015156107b057fe5b906020019060200201516040516107c79190611ccc565b60405180910390a25080806001019150506106cc565b506000604080519081016040528088868151811015156107f957fe5b90602001906020020151815260200183815250908060018154018082558091505090600182039060005260206000209060020201600090919290919091506000820151816000019080519060200190610853929190611366565b5060208201518160010190805190602001906108709291906113e6565b505050505050808060010191505061066c565b5042600481905550603c810242016005819055506001600080549050037faec60fc706a74b36a5137e72c833e5dcc05007d2faa46b594fda137ec41baac3846040516108cf9190611c6d565b60405180910390a2505050565b6001818154811015156108eb57fe5b9060005260206000209060020201600091509050806000018054600181600116156101000203166002900480601f0160208091040260200160405190810160405280929190818152602001828054600181600116156101000203166002900480156109975780601f1061096c57610100808354040283529160200191610997565b820191906000526020600020905b81548152906001019060200180831161097a57829003601f168201915b5050505050908060010154905082565b60055481565b600260009054906101000a900473ffffffffffffffffffffffffffffffffffffffff1681565b600260009054906101000a900473ffffffffffffffffffffffffffffffffffffffff1673ffffffffffffffffffffffffffffffffffffffff163373ffffffffffffffffffffffffffffffffffffffff16141515610a65576040517f08c379a0000000000000000000000000000000000000000000000000000000008152600401610a5c90611da0565b60405180910390fd5b60008090505b600180549050811015610abd57600181815481101515610a8757fe5b906000526020600020906002020160008082016000610aa69190611433565b600182016000905550508080600101915050610a6b565b5060008090505b600080549050811015610b1e57600081815481101515610ae057fe5b906000526020600020906002020160008082016000610aff9190611433565b600182016000610b0f919061147b565b50508080600101915050610ac4565b5060008090505b600080549050811015610c735760008082815481101515610b4257fe5b9060005260206000209060020201600101905060008090505b8180549050811015610c645760008282815481101515610b7757fe5b906000526020600020015490506000600360003373ffffffffffffffffffffffffffffffffffffffff1673ffffffffffffffffffffffffffffffffffffffff168152602001908152602001600020600086815260200190815260200160002060006101000a81548160ff0219169083151502179055506000600360003373ffffffffffffffffffffffffffffffffffffffff1673ffffffffffffffffffffffffffffffffffffffff168152602001908152602001600020600083815260200190815260200160002060006101000a81548160ff021916908315150217905550508080600101915050610b5b565b50508080600101915050610b25565b50565b600260009054906101000a900473ffffffffffffffffffffffffffffffffffffffff1673ffffffffffffffffffffffffffffffffffffffff163373ffffffffffffffffffffffffffffffffffffffff16141515610d08576040517f08c379a0000000000000000000000000000000000000000000000000000000008152600401610cff90611da0565b60405180910390fd5b60008151111515610d4e576040517f08c379a0000000000000000000000000000000000000000000000000000000008152600401610d4590611dc0565b60405180910390fd5b60608151604051908082528060200260200182016040528015610d805781602001602082028038833980820191505090505b50905060008090505b8251811015610e9a5760006001805490509050600160408051908101604052808685815181101515610db757fe5b9060200190602002015181526020016000815250908060018154018082558091505090600182039060005260206000209060020201600090919290919091506000820151816000019080519060200190610e12929190611366565b5060208201518160010155505050808383815181101515610e2f57fe5b9060200190602002018181525050807fe83b2a43e7e82d975c8a0a6d2f045153c869e111136a34d1889ab7b598e396a38584815181101515610e6d57fe5b90602001906020020151604051610e849190611ccc565b60405180910390a2508080600101915050610d89565b506000604080519081016040528085815260200183815250908060018154018082558091505090600182039060005260206000209060020201600090919290919091506000820151816000019080519060200190610ef9929190611366565b506020820151816001019080519060200190610f169291906113e6565b50505050505050565b606060008054905082101515610f6a576040517f08c379a0000000000000000000000000000000000000000000000000000000008152600401610f6190611d40565b60405180910390fd5b6060600083815481101515610f7b57fe5b906000526020600020906002020160010180549050604051908082528060200260200182016040528015610fbe5781602001602082028038833980820191505090505b50905060008090505b600084815481101515610fd657fe5b906000526020600020906002020160010180549050811015611078576000808581548110151561100257fe5b90600052602060002090600202016001018281548110151561102057fe5b9060005260206000200154905060018181548110151561103c57fe5b906000526020600020906002020160010154838381518110151561105c57fe5b9060200190602002018181525050508080600101915050610fc7565b5080915050919050565b600080549050821015156110cb576040517f08c379a00000000000000000000000000000000000000000000000000000000081526004016110c290611d40565b60405180910390fd5b6000828154811015156110da57fe5b90600052602060002090600202016001018054905081101515611132576040517f08c379a000000000000000000000000000000000000000000000000000000000815260040161112990611d60565b60405180910390fd5b6005544211151515611179576040517f08c379a000000000000000000000000000000000000000000000000000000000815260040161117090611e00565b60405180910390fd5b600360003373ffffffffffffffffffffffffffffffffffffffff1673ffffffffffffffffffffffffffffffffffffffff168152602001908152602001600020600083815260200190815260200160002060009054906101000a900460ff16151515611219576040517f08c379a000000000000000000000000000000000000000000000000000000000815260040161121090611de0565b60405180910390fd5b6000808381548110151561122957fe5b90600052602060002090600202016001018281548110151561124757fe5b9060005260206000200154905060018181548110151561126357fe5b9060005260206000209060020201600101600081548092919060010191905055506001600360003373ffffffffffffffffffffffffffffffffffffffff1673ffffffffffffffffffffffffffffffffffffffff168152602001908152602001600020600085815260200190815260200160002060006101000a81548160ff02191690831515021790555080833373ffffffffffffffffffffffffffffffffffffffff167fb4cfecf70861b7b150d8337780d34fb4cbc2114b5fb1fe51a5c5fca1849f727460405160405180910390a4505050565b60036020528160005260406000206020528060005260406000206000915091509054906101000a900460ff1681565b828054600181600116156101000203166002900490600052602060002090601f016020900481019282601f106113a757805160ff19168380011785556113d5565b828001600101855582156113d5579182015b828111156113d45782518255916020019190600101906113b9565b5b5090506113e2919061149c565b5090565b828054828255906000526020600020908101928215611422579160200282015b82811115611421578251825591602001919060010190611406565b5b50905061142f919061149c565b5090565b50805460018160011615610100020316600290046000825580601f106114595750611478565b601f016020900490600052602060002090810190611477919061149c565b5b50565b5080546000825590600052602060002090810190611499919061149c565b50565b6114be91905b808211156114ba5760008160009055506001016114a2565b5090565b90565b60006114cd8235611fe0565b905092915050565b600082601f83011215156114e857600080fd5b81356114fb6114f682611e68565b611e3b565b9150818183526020840193506020810190508360005b838110156115415781358601611527888261154b565b845260208401935060208301925050600181019050611511565b5050505092915050565b600082601f830112151561155e57600080fd5b813561157161156c82611e90565b611e3b565b9150818183526020840193506020810190508360005b838110156115b7578135860161159d8882611637565b845260208401935060208301925050600181019050611587565b5050505092915050565b600082601f83011215156115d457600080fd5b81356115e76115e282611eb8565b611e3b565b9150818183526020840193506020810190508360005b8381101561162d57813586016116138882611637565b8452602084019350602083019250506001810190506115fd565b5050505092915050565b600082601f830112151561164a57600080fd5b813561165d61165882611ee0565b611e3b565b9150808252602083016020830185838301111561167957600080fd5b611684838284611ffc565b50505092915050565b600082601f83011215156116a057600080fd5b81356116b36116ae82611f0c565b611e3b565b915080825260208301602083018583830111156116cf57600080fd5b6116da838284611ffc565b50505092915050565b60006116ef8235611ff2565b905092915050565b6000806040838503121561170a57600080fd5b6000611718858286016114c1565b9250506020611729858286016116e3565b9150509250929050565b60008060006060848603121561174857600080fd5b600084013567ffffffffffffffff81111561176257600080fd5b61176e868287016115c1565b935050602084013567ffffffffffffffff81111561178b57600080fd5b611797868287016114d5565b92505060406117a8868287016116e3565b9150509250925092565b600080604083850312156117c557600080fd5b600083013567ffffffffffffffff8111156117df57600080fd5b6117eb8582860161168d565b925050602083013567ffffffffffffffff81111561180857600080fd5b611814858286016115c1565b9150509250929050565b60006020828403121561183057600080fd5b600061183e848285016116e3565b91505092915050565b6000806040838503121561185a57600080fd5b6000611868858286016116e3565b925050602083013567ffffffffffffffff81111561188557600080fd5b6118918582860161168d565b9150509250929050565b600080604083850312156118ae57600080fd5b60006118bc858286016116e3565b92505060206118cd858286016116e3565b9150509250929050565b6118e081611f98565b82525050565b60006118f182611f52565b8084526020840193508360208202850161190a85611f38565b60005b848110156119435783830388526119258383516119f4565b925061193082611f7e565b915060208801975060018101905061190d565b508196508694505050505092915050565b600061195f82611f5d565b80845260208401935061197183611f45565b60005b828110156119a357611987868351611c43565b61199082611f8b565b9150602086019550600181019050611974565b50849250505092915050565b6119b881611faa565b82525050565b60006119c982611f73565b8084526119dd81602086016020860161200b565b6119e68161203e565b602085010191505092915050565b60006119ff82611f68565b808452611a1381602086016020860161200b565b611a1c8161203e565b602085010191505092915050565b6000601282527f496e76616c696420706f737420696e64657800000000000000000000000000006020830152604082019050919050565b6000601882527f496e76616c69642063616e64696461746520696e6465782e00000000000000006020830152604082019050919050565b6000603882527f496e76616c696420696e7075743a20506f737420616e642063616e646964617460208301527f65206e616d6573206c656e67746873206d69736d6174636800000000000000006040830152606082019050919050565b6000602682527f4f6e6c7920746865206f776e65722063616e20706572666f726d20746869732060208301527f616374696f6e00000000000000000000000000000000000000000000000000006040830152606082019050919050565b6000602782527f4174206c65617374206f6e652063616e646964617465206d757374206265207060208301527f726f7669646564000000000000000000000000000000000000000000000000006040830152606082019050919050565b6000602582527f596f75206861766520616c726561647920766f74656420666f7220746869732060208301527f706f73742e0000000000000000000000000000000000000000000000000000006040830152606082019050919050565b6000601082527f566f74696e672068617320656e646564000000000000000000000000000000006020830152604082019050919050565b611c4c81611fd6565b82525050565b6000602082019050611c6760008301846118d7565b92915050565b60006020820190508181036000830152611c8781846118e6565b905092915050565b60006020820190508181036000830152611ca98184611954565b905092915050565b6000602082019050611cc660008301846119af565b92915050565b60006020820190508181036000830152611ce681846119f4565b905092915050565b60006020820190508181036000830152611d0881846119be565b905092915050565b60006040820190508181036000830152611d2a81856119f4565b9050611d396020830184611c43565b9392505050565b60006020820190508181036000830152611d5981611a2a565b9050919050565b60006020820190508181036000830152611d7981611a61565b9050919050565b60006020820190508181036000830152611d9981611a98565b9050919050565b60006020820190508181036000830152611db981611af5565b9050919050565b60006020820190508181036000830152611dd981611b52565b9050919050565b60006020820190508181036000830152611df981611baf565b9050919050565b60006020820190508181036000830152611e1981611c0c565b9050919050565b6000602082019050611e356000830184611c43565b92915050565b6000604051905081810181811067ffffffffffffffff82111715611e5e57600080fd5b8060405250919050565b600067ffffffffffffffff821115611e7f57600080fd5b602082029050602081019050919050565b600067ffffffffffffffff821115611ea757600080fd5b602082029050602081019050919050565b600067ffffffffffffffff821115611ecf57600080fd5b602082029050602081019050919050565b600067ffffffffffffffff821115611ef757600080fd5b601f19601f8301169050602081019050919050565b600067ffffffffffffffff821115611f2357600080fd5b601f19601f8301169050602081019050919050565b6000602082019050919050565b6000602082019050919050565b600081519050919050565b600081519050919050565b600081519050919050565b600081519050919050565b6000602082019050919050565b6000602082019050919050565b6000611fa382611fb6565b9050919050565b60008115159050919050565b600073ffffffffffffffffffffffffffffffffffffffff82169050919050565b6000819050919050565b6000611feb82611fb6565b9050919050565b6000819050919050565b82818337600083830152505050565b60005b8381101561202957808201518184015260208101905061200e565b83811115612038576000848401525b50505050565b6000601f19601f830116905091905056fea265627a7a723058203c325e7d255ed7927b250d934be8d3d5b8c8ec84094ae00d168ebd4a48ee3ab06c6578706572696d656e74616cf50037",
  "source": "// SPDX-License-Identifier: MIT\r\npragma experimental ABIEncoderV2;\r\npragma solidity >=0.4.22 <0.9.0;\r\n\r\ncontract MultiPostVoting {\r\n  struct Candidate {\r\n    string name;\r\n    uint256 voteCount;\r\n  }\r\n\r\n  struct Post {\r\n    string name;\r\n    uint256[] candidateIndexes;\r\n  }\r\n\r\n  Post[] public posts;\r\n  Candidate[] public candidates;\r\n  address public owner;\r\n  mapping(address => mapping(uint256 => bool)) public votersByPost;\r\n\r\n  uint256 public votingStart;\r\n  uint256 public votingEnd;\r\n\r\n  event AlreadyVoted(address indexed voter, uint256 indexed postIndex);\r\n  event CandidateAdded(uint256 indexed candidateIndex, string name);\r\n  event ElectionCreated(uint256 indexed electionId, string[] postNames);\r\n  event VoteCast(address indexed voter, uint256 indexed postIndex, uint256 indexed candidateIndex);\r\n\r\n  constructor() public {\r\n    owner = msg.sender;\r\n  }\r\n\r\n  modifier onlyOwner() {\r\n    require(msg.sender == owner, \"Only the owner can perform this action\");\r\n    _;\r\n  }\r\n\r\n  function createElection(string[] memory _postNames, string[][] memory _candidateNames, uint256 _durationInMinutes) public onlyOwner {\r\n    require(_postNames.length == _candidateNames.length, \"Invalid input: Post and candidate names lengths mismatch\");\r\n\r\n    for (uint256 i = 0; i < _postNames.length; i++) {\r\n      string[] memory postCandidates = _candidateNames[i];\r\n      uint256[] memory candidateIndexes = new uint256[](postCandidates.length);\r\n\r\n      for (uint256 j = 0; j < postCandidates.length; j++) {\r\n        uint256 candidateIndex = candidates.length;\r\n        candidates.push(Candidate({\r\n          name: postCandidates[j],\r\n          voteCount: 0\r\n        }));\r\n        candidateIndexes[j] = candidateIndex;\r\n\r\n        emit CandidateAdded(candidateIndex, postCandidates[j]);\r\n      }\r\n\r\n      posts.push(Post({\r\n        name: _postNames[i],\r\n        candidateIndexes: candidateIndexes\r\n      }));\r\n    }\r\n\r\n    votingStart = block.timestamp;\r\n    votingEnd = block.timestamp + (_durationInMinutes * 1 minutes);\r\n\r\n    emit ElectionCreated(posts.length - 1, _postNames);\r\n  }\r\n\r\n  function addCandidate(uint256 _postIndex, string memory _name) public onlyOwner {\r\n    require(_postIndex < posts.length, \"Invalid post index\");\r\n\r\n    uint256 candidateIndex = candidates.length;\r\n    candidates.push(Candidate({\r\n      name: _name,\r\n      voteCount: 0\r\n    }));\r\n\r\n    posts[_postIndex].candidateIndexes.push(candidateIndex);\r\n\r\n    emit CandidateAdded(candidateIndex, _name);\r\n  }\r\n\r\n  function vote(uint256 _postIndex, uint256 _candidateIndex) public {\r\n    require(_postIndex < posts.length, \"Invalid post index\");\r\n    require(_candidateIndex < posts[_postIndex].candidateIndexes.length, \"Invalid candidate index.\");\r\n    require(block.timestamp <= votingEnd, \"Voting has ended\");\r\n    require(!votersByPost[msg.sender][_postIndex], \"You have already voted for this post.\");\r\n\r\n    uint256 candidateIndex = posts[_postIndex].candidateIndexes[_candidateIndex];\r\n    candidates[candidateIndex].voteCount++;\r\n    votersByPost[msg.sender][_postIndex] = true;\r\n\r\n    emit VoteCast(msg.sender, _postIndex, candidateIndex);\r\n  }\r\n\r\n  function addPostWithCandidates(string memory _postName, string[] memory _candidateNames) public onlyOwner {\r\n    require(_candidateNames.length > 0, \"At least one candidate must be provided\");\r\n\r\n    uint256[] memory candidateIndexes = new uint256[](_candidateNames.length);\r\n\r\n    for (uint256 i = 0; i < _candidateNames.length; i++) {\r\n      uint256 candidateIndex = candidates.length;\r\n      candidates.push(Candidate({\r\n        name: _candidateNames[i],\r\n        voteCount: 0\r\n      }));\r\n      candidateIndexes[i] = candidateIndex;\r\n\r\n      emit CandidateAdded(candidateIndex, _candidateNames[i]);\r\n    }\r\n\r\n    posts.push(Post({\r\n      name: _postName,\r\n      candidateIndexes: candidateIndexes\r\n    }));\r\n  }\r\n\r\n  function getVoteCount(uint256 _postIndex) public view returns (uint256[] memory) {\r\n    require(_postIndex < posts.length, \"Invalid post index\");\r\n\r\n    uint256[] memory votes = new uint256[](posts[_postIndex].candidateIndexes.length);\r\n\r\n    for (uint256 i = 0; i < posts[_postIndex].candidateIndexes.length; i++) {\r\n        uint256 candidateIndex = posts[_postIndex].candidateIndexes[i];\r\n        votes[i] = candidates[candidateIndex].voteCount;\r\n    }\r\n\r\n    return votes;\r\n  }\r\n\r\n  function deleteAllPostsAndCandidates() public onlyOwner {\r\n  // Delete all candidates\r\n  for (uint256 i = 0; i < candidates.length; i++) {\r\n    delete candidates[i];\r\n  }\r\n\r\n  // Delete all posts\r\n  for (uint256 i = 0; i < posts.length; i++) {\r\n    delete posts[i];\r\n  }\r\n  for (uint256 i = 0; i < posts.length; i++) {\r\n    uint256[] storage candidateIndexes = posts[i].candidateIndexes;\r\n    for (uint256 j = 0; j < candidateIndexes.length; j++) {\r\n      uint256 candidateIndex = candidateIndexes[j];\r\n      votersByPost[msg.sender][i] = false;\r\n      votersByPost[msg.sender][candidateIndex] = false;\r\n    }\r\n  }\r\n}\r\n}",
  "sourcePath": "D:\\De-vote1\\Mainproject\\contracts\\MultiPostVoting.sol",
  "compiler": {
    "name": "solc",
    "version": "0.5.1+commit.c8a2cb62.Emscripten.clang"
  },
  "schemaVersion": "3.4.16",
  "updatedAt": "2024-04-14T06:27:04.365Z",
  "networkType": "ethereum",
  "devdoc": {
    "methods": {}
  },
  "userdoc": {
    "methods": {}
  }
}